{
  "_format": "hh-sol-artifact-1",
  "contractName": "Event",
  "sourceName": "contracts/Event.sol",
  "abi": [
    {
      "inputs": [
        {
          "internalType": "uint256",
          "name": "eventId",
          "type": "uint256"
        }
      ],
      "name": "buyTickets",
      "outputs": [],
      "stateMutability": "payable",
      "type": "function"
    },
    {
      "inputs": [
        {
          "internalType": "string",
          "name": "_imageHash",
          "type": "string"
        },
        {
          "internalType": "string",
          "name": "_title",
          "type": "string"
        },
        {
          "internalType": "string",
          "name": "_description",
          "type": "string"
        },
        {
          "internalType": "uint256",
          "name": "_startDate",
          "type": "uint256"
        },
        {
          "internalType": "uint256",
          "name": "_endDate",
          "type": "uint256"
        },
        {
          "internalType": "uint256",
          "name": "_price",
          "type": "uint256"
        },
        {
          "internalType": "uint256",
          "name": "_totaleTicket",
          "type": "uint256"
        }
      ],
      "name": "createEvent",
      "outputs": [],
      "stateMutability": "nonpayable",
      "type": "function"
    },
    {
      "inputs": [],
      "name": "getAllEvent",
      "outputs": [
        {
          "components": [
            {
              "internalType": "uint256",
              "name": "eventID",
              "type": "uint256"
            },
            {
              "internalType": "string",
              "name": "imageHash",
              "type": "string"
            },
            {
              "internalType": "address",
              "name": "owner",
              "type": "address"
            },
            {
              "internalType": "string",
              "name": "title",
              "type": "string"
            },
            {
              "internalType": "string",
              "name": "description",
              "type": "string"
            },
            {
              "internalType": "uint256",
              "name": "startDate",
              "type": "uint256"
            },
            {
              "internalType": "uint256",
              "name": "endDate",
              "type": "uint256"
            },
            {
              "internalType": "uint256",
              "name": "price",
              "type": "uint256"
            },
            {
              "internalType": "uint256",
              "name": "totalAmount",
              "type": "uint256"
            },
            {
              "internalType": "uint256",
              "name": "totaleTicket",
              "type": "uint256"
            },
            {
              "internalType": "uint256",
              "name": "raimainTicket",
              "type": "uint256"
            }
          ],
          "internalType": "struct Event.EventData[]",
          "name": "",
          "type": "tuple[]"
        }
      ],
      "stateMutability": "view",
      "type": "function"
    },
    {
      "inputs": [
        {
          "internalType": "address",
          "name": "_participant",
          "type": "address"
        }
      ],
      "name": "getAllEventBuyParticipant",
      "outputs": [
        {
          "components": [
            {
              "internalType": "uint256",
              "name": "eventID",
              "type": "uint256"
            },
            {
              "internalType": "string",
              "name": "imageHash",
              "type": "string"
            },
            {
              "internalType": "address",
              "name": "owner",
              "type": "address"
            },
            {
              "internalType": "string",
              "name": "title",
              "type": "string"
            },
            {
              "internalType": "string",
              "name": "description",
              "type": "string"
            },
            {
              "internalType": "uint256",
              "name": "startDate",
              "type": "uint256"
            },
            {
              "internalType": "uint256",
              "name": "endDate",
              "type": "uint256"
            },
            {
              "internalType": "uint256",
              "name": "price",
              "type": "uint256"
            },
            {
              "internalType": "uint256",
              "name": "totalAmount",
              "type": "uint256"
            },
            {
              "internalType": "uint256",
              "name": "totaleTicket",
              "type": "uint256"
            },
            {
              "internalType": "uint256",
              "name": "raimainTicket",
              "type": "uint256"
            }
          ],
          "internalType": "struct Event.EventData[]",
          "name": "",
          "type": "tuple[]"
        }
      ],
      "stateMutability": "view",
      "type": "function"
    },
    {
      "inputs": [
        {
          "internalType": "address",
          "name": "",
          "type": "address"
        },
        {
          "internalType": "uint256",
          "name": "",
          "type": "uint256"
        }
      ],
      "name": "participate",
      "outputs": [
        {
          "internalType": "bool",
          "name": "",
          "type": "bool"
        }
      ],
      "stateMutability": "view",
      "type": "function"
    },
    {
      "inputs": [
        {
          "internalType": "uint256",
          "name": "_id",
          "type": "uint256"
        }
      ],
      "name": "withdraw",
      "outputs": [],
      "stateMutability": "nonpayable",
      "type": "function"
    }
  ],
  "bytecode": "0x608060405234801561001057600080fd5b50611d7b806100206000396000f3fe6080604052600436106100555760003560e01c80631002cdd41461005a5780632e1a7d4d146100855780632f366637146100ae57806335e3f86d146100ca578063835e489f14610107578063b64afbe514610130575b600080fd5b34801561006657600080fd5b5061006f61016d565b60405161007c91906113a3565b60405180910390f35b34801561009157600080fd5b506100ac60048036038101906100a79190611405565b6104ac565b005b6100c860048036038101906100c39190611405565b61062b565b005b3480156100d657600080fd5b506100f160048036038101906100ec919061145e565b61090d565b6040516100fe91906113a3565b60405180910390f35b34801561011357600080fd5b5061012e600480360381019061012991906115c0565b610d36565b005b34801561013c57600080fd5b50610157600480360381019061015291906116b6565b610faf565b6040516101649190611711565b60405180910390f35b60606000805490506000808267ffffffffffffffff81111561019257610191611495565b5b6040519080825280602002602001820160405280156101cb57816020015b6101b8610fde565b8152602001906001900390816101b05790505b50905060005b838110156104a25760006001826101e8919061175b565b90506000600160008381526020019081526020016000209050806040518061016001604052908160008201548152602001600182018054610228906117e0565b80601f0160208091040260200160405190810160405280929190818152602001828054610254906117e0565b80156102a15780601f10610276576101008083540402835291602001916102a1565b820191906000526020600020905b81548152906001019060200180831161028457829003601f168201915b505050505081526020016002820160009054906101000a900473ffffffffffffffffffffffffffffffffffffffff1673ffffffffffffffffffffffffffffffffffffffff1673ffffffffffffffffffffffffffffffffffffffff168152602001600382018054610310906117e0565b80601f016020809104026020016040519081016040528092919081815260200182805461033c906117e0565b80156103895780601f1061035e57610100808354040283529160200191610389565b820191906000526020600020905b81548152906001019060200180831161036c57829003601f168201915b505050505081526020016004820180546103a2906117e0565b80601f01602080910402602001604051908101604052809291908181526020018280546103ce906117e0565b801561041b5780601f106103f05761010080835404028352916020019161041b565b820191906000526020600020905b8154815290600101906020018083116103fe57829003601f168201915b505050505081526020016005820154815260200160068201548152602001600782015481526020016008820154815260200160098201548152602001600a8201548152505084868151811061047357610472611812565b5b602002602001018190525060018561048b919061175b565b94505050808061049a90611841565b9150506101d1565b5080935050505090565b6001600082815260200190815260200160002060020160009054906101000a900473ffffffffffffffffffffffffffffffffffffffff1673ffffffffffffffffffffffffffffffffffffffff163373ffffffffffffffffffffffffffffffffffffffff1614610550576040517f08c379a0000000000000000000000000000000000000000000000000000000008152600401610547906118e7565b60405180910390fd5b60006001600083815260200190815260200160002060080154116105a9576040517f08c379a00000000000000000000000000000000000000000000000000000000081526004016105a090611953565b60405180910390fd5b600060016000838152602001908152602001600020600801549050600060016000848152602001908152602001600020600801819055503373ffffffffffffffffffffffffffffffffffffffff166108fc829081150290604051600060405180830381858888f19350505050158015610626573d6000803e3d6000fd5b505050565b600073ffffffffffffffffffffffffffffffffffffffff166001600083815260200190815260200160002060020160009054906101000a900473ffffffffffffffffffffffffffffffffffffffff1673ffffffffffffffffffffffffffffffffffffffff1614156106d1576040517f08c379a00000000000000000000000000000000000000000000000000000000081526004016106c8906119bf565b60405180910390fd5b600160008281526020019081526020016000206009015460016000838152602001908152602001600020600a01541061073f576040517f08c379a000000000000000000000000000000000000000000000000000000000815260040161073690611a2b565b60405180910390fd5b60016000828152602001908152602001600020600701543414610797576040517f08c379a000000000000000000000000000000000000000000000000000000000815260040161078e90611abd565b60405180910390fd5b426001600083815260200190815260200160002060050154106107ef576040517f08c379a00000000000000000000000000000000000000000000000000000000081526004016107e690611b29565b60405180910390fd5b42600160008381526020019081526020016000206006015411610847576040517f08c379a000000000000000000000000000000000000000000000000000000000815260040161083e90611b95565b60405180910390fd5b6001600260003373ffffffffffffffffffffffffffffffffffffffff1673ffffffffffffffffffffffffffffffffffffffff168152602001908152602001600020600083815260200190815260200160002060006101000a81548160ff021916908315150217905550346001600083815260200190815260200160002060080160008282546108d6919061175b565b925050819055506001806000838152602001908152602001600020600a016000828254610903919061175b565b9250508190555050565b6060600080549050600080600190505b8281116109a957600260008673ffffffffffffffffffffffffffffffffffffffff1673ffffffffffffffffffffffffffffffffffffffff168152602001908152602001600020600082815260200190815260200160002060009054906101000a900460ff161561099657818061099290611841565b9250505b80806109a190611841565b91505061091d565b506000808267ffffffffffffffff8111156109c7576109c6611495565b5b604051908082528060200260200182016040528015610a0057816020015b6109ed610fde565b8152602001906001900390816109e55790505b5090506000600190505b848111610d2957600260008873ffffffffffffffffffffffffffffffffffffffff1673ffffffffffffffffffffffffffffffffffffffff168152602001908152602001600020600082815260200190815260200160002060009054906101000a900460ff1615610d16576000600160008381526020019081526020016000209050806040518061016001604052908160008201548152602001600182018054610ab2906117e0565b80601f0160208091040260200160405190810160405280929190818152602001828054610ade906117e0565b8015610b2b5780601f10610b0057610100808354040283529160200191610b2b565b820191906000526020600020905b815481529060010190602001808311610b0e57829003601f168201915b505050505081526020016002820160009054906101000a900473ffffffffffffffffffffffffffffffffffffffff1673ffffffffffffffffffffffffffffffffffffffff1673ffffffffffffffffffffffffffffffffffffffff168152602001600382018054610b9a906117e0565b80601f0160208091040260200160405190810160405280929190818152602001828054610bc6906117e0565b8015610c135780601f10610be857610100808354040283529160200191610c13565b820191906000526020600020905b815481529060010190602001808311610bf657829003601f168201915b50505050508152602001600482018054610c2c906117e0565b80601f0160208091040260200160405190810160405280929190818152602001828054610c58906117e0565b8015610ca55780601f10610c7a57610100808354040283529160200191610ca5565b820191906000526020600020905b815481529060010190602001808311610c8857829003601f168201915b505050505081526020016005820154815260200160068201548152602001600782015481526020016008820154815260200160098201548152602001600a82015481525050838580610cf690611841565b965081518110610d0957610d08611812565b5b6020026020010181905250505b8080610d2190611841565b915050610a0a565b5080945050505050919050565b42841015610d79576040517f08c379a0000000000000000000000000000000000000000000000000000000008152600401610d7090611c27565b60405180910390fd5b42831015610dbc576040517f08c379a0000000000000000000000000000000000000000000000000000000008152600401610db390611c93565b60405180910390fd5b60008111610dff576040517f08c379a0000000000000000000000000000000000000000000000000000000008152600401610df690611d25565b60405180910390fd5b600080815480929190610e1190611841565b9190505550610e1e610fde565b60005481600001818152505087816020018190525033816040019073ffffffffffffffffffffffffffffffffffffffff16908173ffffffffffffffffffffffffffffffffffffffff1681525050868160600181905250858160800181905250848160a0018181525050838160c0018181525050828160e00181815250508181610120018181525050806001600080548152602001908152602001600020600082015181600001556020820151816001019080519060200190610ee192919061104e565b5060408201518160020160006101000a81548173ffffffffffffffffffffffffffffffffffffffff021916908373ffffffffffffffffffffffffffffffffffffffff1602179055506060820151816003019080519060200190610f4592919061104e565b506080820151816004019080519060200190610f6292919061104e565b5060a0820151816005015560c0820151816006015560e082015181600701556101008201518160080155610120820151816009015561014082015181600a01559050505050505050505050565b60026020528160005260406000206020528060005260406000206000915091509054906101000a900460ff1681565b6040518061016001604052806000815260200160608152602001600073ffffffffffffffffffffffffffffffffffffffff16815260200160608152602001606081526020016000815260200160008152602001600081526020016000815260200160008152602001600081525090565b82805461105a906117e0565b90600052602060002090601f01602090048101928261107c57600085556110c3565b82601f1061109557805160ff19168380011785556110c3565b828001600101855582156110c3579182015b828111156110c25782518255916020019190600101906110a7565b5b5090506110d091906110d4565b5090565b5b808211156110ed5760008160009055506001016110d5565b5090565b600081519050919050565b600082825260208201905092915050565b6000819050602082019050919050565b6000819050919050565b6111308161111d565b82525050565b600081519050919050565b600082825260208201905092915050565b60005b83811015611170578082015181840152602081019050611155565b8381111561117f576000848401525b50505050565b6000601f19601f8301169050919050565b60006111a182611136565b6111ab8185611141565b93506111bb818560208601611152565b6111c481611185565b840191505092915050565b600073ffffffffffffffffffffffffffffffffffffffff82169050919050565b60006111fa826111cf565b9050919050565b61120a816111ef565b82525050565b6000610160830160008301516112296000860182611127565b50602083015184820360208601526112418282611196565b91505060408301516112566040860182611201565b506060830151848203606086015261126e8282611196565b915050608083015184820360808601526112888282611196565b91505060a083015161129d60a0860182611127565b5060c08301516112b060c0860182611127565b5060e08301516112c360e0860182611127565b506101008301516112d8610100860182611127565b506101208301516112ed610120860182611127565b50610140830151611302610140860182611127565b508091505092915050565b60006113198383611210565b905092915050565b6000602082019050919050565b6000611339826110f1565b61134381856110fc565b9350836020820285016113558561110d565b8060005b858110156113915784840389528151611372858261130d565b945061137d83611321565b925060208a01995050600181019050611359565b50829750879550505050505092915050565b600060208201905081810360008301526113bd818461132e565b905092915050565b6000604051905090565b600080fd5b600080fd5b6113e28161111d565b81146113ed57600080fd5b50565b6000813590506113ff816113d9565b92915050565b60006020828403121561141b5761141a6113cf565b5b6000611429848285016113f0565b91505092915050565b61143b816111ef565b811461144657600080fd5b50565b60008135905061145881611432565b92915050565b600060208284031215611474576114736113cf565b5b600061148284828501611449565b91505092915050565b600080fd5b600080fd5b7f4e487b7100000000000000000000000000000000000000000000000000000000600052604160045260246000fd5b6114cd82611185565b810181811067ffffffffffffffff821117156114ec576114eb611495565b5b80604052505050565b60006114ff6113c5565b905061150b82826114c4565b919050565b600067ffffffffffffffff82111561152b5761152a611495565b5b61153482611185565b9050602081019050919050565b82818337600083830152505050565b600061156361155e84611510565b6114f5565b90508281526020810184848401111561157f5761157e611490565b5b61158a848285611541565b509392505050565b600082601f8301126115a7576115a661148b565b5b81356115b7848260208601611550565b91505092915050565b600080600080600080600060e0888a0312156115df576115de6113cf565b5b600088013567ffffffffffffffff8111156115fd576115fc6113d4565b5b6116098a828b01611592565b975050602088013567ffffffffffffffff81111561162a576116296113d4565b5b6116368a828b01611592565b965050604088013567ffffffffffffffff811115611657576116566113d4565b5b6116638a828b01611592565b95505060606116748a828b016113f0565b94505060806116858a828b016113f0565b93505060a06116968a828b016113f0565b92505060c06116a78a828b016113f0565b91505092959891949750929550565b600080604083850312156116cd576116cc6113cf565b5b60006116db85828601611449565b92505060206116ec858286016113f0565b9150509250929050565b60008115159050919050565b61170b816116f6565b82525050565b60006020820190506117266000830184611702565b92915050565b7f4e487b7100000000000000000000000000000000000000000000000000000000600052601160045260246000fd5b60006117668261111d565b91506117718361111d565b9250827fffffffffffffffffffffffffffffffffffffffffffffffffffffffffffffffff038211156117a6576117a561172c565b5b828201905092915050565b7f4e487b7100000000000000000000000000000000000000000000000000000000600052602260045260246000fd5b600060028204905060018216806117f857607f821691505b6020821081141561180c5761180b6117b1565b5b50919050565b7f4e487b7100000000000000000000000000000000000000000000000000000000600052603260045260246000fd5b600061184c8261111d565b91507fffffffffffffffffffffffffffffffffffffffffffffffffffffffffffffffff82141561187f5761187e61172c565b5b600182019050919050565b600082825260208201905092915050565b7f596f7520617265206e6f7420746865206f776e65722e00000000000000000000600082015250565b60006118d160168361188a565b91506118dc8261189b565b602082019050919050565b60006020820190508181036000830152611900816118c4565b9050919050565b7f596f752068617665206265656e2077697468647261776e2e0000000000000000600082015250565b600061193d60188361188a565b915061194882611907565b602082019050919050565b6000602082019050818103600083015261196c81611930565b9050919050565b7f4576656e20646f6573206e6f7420657869737400000000000000000000000000600082015250565b60006119a960138361188a565b91506119b482611973565b602082019050919050565b600060208201905081810360008301526119d88161199c565b9050919050565b7f546865726520617265206e6f2072656d61696e696e67207469636b6574730000600082015250565b6000611a15601e8361188a565b9150611a20826119df565b602082019050919050565b60006020820190508181036000830152611a4481611a08565b9050919050565b7f5061796d656e7420646964206e6f74206d61746368206576656e74207469636b60008201527f6574207072696365000000000000000000000000000000000000000000000000602082015250565b6000611aa760288361188a565b9150611ab282611a4b565b604082019050919050565b60006020820190508181036000830152611ad681611a9a565b9050919050565b7f54686973204576656e74206e6f742073746172746564207965742e0000000000600082015250565b6000611b13601b8361188a565b9150611b1e82611add565b602082019050919050565b60006020820190508181036000830152611b4281611b06565b9050919050565b7f54686973204576656e7420686173206265656e2066696e69736865642e000000600082015250565b6000611b7f601d8361188a565b9150611b8a82611b49565b602082019050919050565b60006020820190508181036000830152611bae81611b72565b9050919050565b7f7374617274206576656e742064617465206d757374206265207374617274206960008201527f6e20667574757265000000000000000000000000000000000000000000000000602082015250565b6000611c1160288361188a565b9150611c1c82611bb5565b604082019050919050565b60006020820190508181036000830152611c4081611c04565b9050919050565b7f656e64206576656e742064617465206d75737420626520696e20667574757265600082015250565b6000611c7d60208361188a565b9150611c8882611c47565b602082019050919050565b60006020820190508181036000830152611cac81611c70565b9050919050565b7f20616d6f756e74206f66207469636b657473206d757374206265206d6f72652060008201527f7468616e20300000000000000000000000000000000000000000000000000000602082015250565b6000611d0f60268361188a565b9150611d1a82611cb3565b604082019050919050565b60006020820190508181036000830152611d3e81611d02565b905091905056fea264697066735822122092de76ec30e04da69b249ee8524f9a893930a56aaf49d71ff0f602d63c67bee164736f6c634300080a0033",
  "linkReferences": {},
  "deployedLinkReferences": {}
}